:02000002D0002C
:1040000000400D0014530D00000006000C000501D7
:084010000401DB0700000000C1
:04401800CC500D007B
:10401C0009480A49884208B505D0094A824202D0AB
:10402C00121A01F001F80748074A0021121A01F090
:10403C0009F8014808BD00BFD8E5032084520D00E3
:10404C0040E6032040E60320F0E7032070B5074E5E
:10405C00074C00F0F7FEA41BA4080025A54200D1D4
:10406C0070BD56F8043B98470135F7E754520D00E4
:10407C0078520D0000F066B808B500F07DF8BDE888
:10408C00084000F0A1BE00F009BA00F00FBA0078A9
:10409C00B0FA80F0400970470123037070470000AC
:1040AC0070B52449054600F0E4FC044668B10121D2
:1040BC00042000F048FF0021022000F044FF002102
:1040CC00032000F040FF012070BD1B49284600F082
:1040DC00D0FC064650B10121032000F034FF2146EC
:1040EC00022000F030FF21460420EAE7134928465D
:1040FC0000F0BFFC044630B10121022000F023FF88
:10410C0031460420D9E70E49284600F0B2FC68B1CC
:10411C002146022000F017FF2146042000F013FF77
:10412C000320214600F00FFF2046CDE74FF0FF3073
:10413C00CAE700BFE0500D00E6500D00EB500D003B
:10414C00EF500D0008B50121022000F0EBFE01211B
:10415C00042000F0E7FE0121032000F0E3FEBDE89F
:10416C000840024A0249034800F0F3B9F3500D002D
:10417C00AD400D0033450D0070470021012000F0CB
:10418C0011B9000008B5024B1B685B6C019308BDAC
:10419C004802030008B5024B1B689B6C019308BDD9
:1041AC004802030008B5024B1B685B68019308BD0D
:1041BC001802030008B5024B1B685B69019308BD2C
:1041CC001802030008B5024B1B689B68019308BDDD
:1041DC002C02030008B5024B1B68DB68019308BD79
:1041EC002C02030008B5024B1B681B69019308BD28
:1041FC002C02030008B5024B1B681B6A019308BD17
:10420C002802030008B5024B1B685B6A019308BDCA
:10421C002802030008B5024B1B689B6A019308BD7A
:10422C002802030008B5024B1B68DB6A019308BD2A
:10423C002802030008B5024B1B681B6B019308BDD9
:10424C002802030008B5024B1B685B6B019308BD89
:10425C002802030008B5024B1B681B6C019308BDB8
:10426C002802030008B5024B1B685B69019308BD6B
:10427C006402030008B5024B1B689B68019308BDE0
:10428C006802030008B5024B1B68DB68019308BD8C
:10429C006802030008B5024B1B68DB69019308BD7B
:1042AC003002030008B5024B1B681B6A019308BD62
:1042BC003002030008B5024B1B681B68019308BD54
:1042CC003C02030008B5024B1B68DB68019308BD78
:1042DC003C02030008B5024B1B681B69019308BD27
:1042EC003C02030008B5024B1B685B69019308BDD7
:1042FC003C02030008B5024B1B689B69019308BD87
:10430C003C02030008B5024B1B68DB69019308BD36
:10431C003C02030008B5024B1B681B6A019308BDE5
:10432C003C02030008B5024B1B689B6A019308BD55
:10433C003C02030008B5024B1B681B68019308BDC7
:10434C004C02030008B5024B1B681B69019308BDA6
:10435C004C02030008B5024B1B685B69019308BD56
:10436C004C02030008B5024B1B689B69019308BD06
:10437C004C02030008B5024B1B68DB69019308BDB6
:10438C004C02030008B5024B1B681B6A019308BD65
:10439C004C02030008B5024B1B685B68019308BD17
:1043AC002002030008B5024B1B68DB6A019308BDB1
:1043BC002002030008B5034B1B68D3F88830019327
:1043CC0008BD00002002030008B5034B1B68D3F89E
:1043DC009430019308BD00002002030008B5024B85
:1043EC001B685B68019308BD4402030008B5024BCF
:1043FC001B68DB6B019308BD4402030008B5024B3C
:10440C001B685B68019308BD4002030008B5024BB2
:10441C001B689B68019308BD4002030008B5024B62
:10442C001B68DB68019308BD4002030008B5024B12
:10443C001B681B69019308BD4002030008B5024BC1
:10444C001B685B69019308BD4002030008B5024B71
:10445C001B689B69019308BD4002030008B5024B21
:10446C001B68DB69019308BD4002030008B5024BD1
:10447C001B681B6A019308BD4002030008B5024B80
:10448C001B681B6B019308BD4002030008B5024B6F
:10449C001B685B6B019308BD4002030008B5024B1F
:1044AC001B681B68019308BD1C02030008B5024B76
:1044BC001B685B68019308BD1C02030008B5024B26
:1044CC001B689B68019308BD1C02030008B5024BD6
:1044DC001B685B6C019308BD1C02030010B50446FD
:1044EC00006808B1FFF756FE204610BD10B5064C0B
:1044FC00002320462360FFF745FE2046034A04496B
:10450C00BDE8104000F078BD44E6032040E60320EF
:10451C00E9440D0010B58368044613B1032201462B
:10452C009847204610BD10B588B00446684600F088
:10453C0072FA694604A800F091FA04A8A047044650
:10454C0004A800F01DFA684600F01AFA204608B0DC
:10455C0010BD1FB50023CDE90201019210241A46AB
:10456C0069461846ADF80230ADF80040FFF736FF4B
:10457C0004B010BD002240681146FFF777BF00223F
:10458C0040681146FFF782BF40680022FFF776BFF4
:10459C004068002281F00101FFF760BF00234068F2
:1045AC001A461946FFF752BF002340681A461946AF
:1045BC00FFF744BF002240681146FFF737BF0022C7
:1045CC0040681146FFF722BF406800220221FFF726
:1045DC0025BF002340681A46FFF710BF024B032289
:1045EC005A60024A1A60704748E6032000510D00D9
:1045FC007047F8B5064615460C468F18BC4206D0D7
:10460C00336814F8011B9B6830469847F6E7284638
:10461C00F8BD007C0022FFF7EDBD007C0021FFF708
:10462C00F1BD007C0021FFF7F5BD007C0021FFF7F8
:10463C00F9BD007C0021FFF7FDBD10B51421044627
:10464C0000F0DFFC204610BD10B54FF47A73044621
:10465C0008460021C4E90113034B23602074114662
:10466C00FFF7F8FD204610BD34510D00704710B512
:10467C001821044600F0C5FC204610BDF0B5037DA2
:10468C00062B8DB00E4600F104074FF0000412D03B
:10469C0000F1080515F8011D0A22304600F033F927
:1046AC00AF42044419D0002CF4D02E21304600F037
:1046BC0027F90444EEE72F236A4639460A208DF881
:1046CC000040FFF7CFFD684600F0F2FC336802466D
:1046DC00DB68694630469847044620460DB0F0BD6D
:1046EC0010B5054B0446112240F8043B002100F0A4
:1046FC00A9FC204610BD00BF5C510D000346074AC3
:10470C0010B543F8042B01F1100251F8044B43F897
:10471C00044B9142F9D10A781A7010BD5C510D000E
:10472C0010B59DF8084044EA032343EA024242EAEA
:10473C00016104234160037510BD13B5CB78009360
:10474C008B784A780978FFF7EBFF02B010BD0000B8
:10475C00014B024A1A60704750E6032068510D0065
:10476C00002340681A46FFF749BE40680022022128
:10477C00FFF754BE002240681146FFF747BE0022E7
:10478C0040681146FFF752BE002340681A4619468E
:10479C00FFF754BE002340681A461946FFF756BE71
:1047AC004068002281F00101FFF758BE40680022EA
:1047BC00FFF764BE002240681146FFF767BE002277
:1047CC0040681146FFF752BE2DE9F043002495B026
:1047DC0016460D460746FFF783FF214618220EA802
:1047EC00009400F02FFC4023CDE90C3421466B469D
:1047FC000CAA3046FFF746FD0446002846D1024677
:10480C0001216868FFF712FE022180462246686883
:10481C00FFF70CFE009E81462146002E36D0002963
:10482C0034D17368022B03D00A2B0BD0F669F4E752
:10483C00B8F1000F04D0716938460431FFF77DFFE1
:10484C004146F3E7B9F1000F01D14946EEE774692F
:10485C00102201A800F0F6FB06238DF8143001ADF0
:10486C0004F108031834186859682A4603C208333F
:10487C00A3421546F7D101A906A807ADFFF73EFFE5
:10488C000FCD3C1D0FC42B682370DEE70098FFF79B
:10489C00F1FC384615B0BDE8F0830000024B034A2A
:1048AC001A6000225A60704754E6032074510D00C0
:1048BC00F8B506460D468F180024BD420CD033685F
:1048CC0015F8011B9B6830469847031E01DB1C44FE
:1048DC00F3E7002C08BF1C462046F8BD13B5044670
:1048EC00084659B1019100F0E3FB23680199DB689C
:1048FC000246204602B0BDE81040184702B010BD79
:10490C0003689B68184730B58BB000238DF82430B2
:10491C00012A98BF0A2209AC0D46B1FBF2F101FB4A
:10492C00125303F0FF03092B94BF30333733DBB240
:10493C00AA4204F8013DEFD92146FFF7CFFF0BB097
:10494C0030BD10B50446FFF7E5FD204610BD000054
:10495C000348044A04490023836000F04DBB00BFA8
:10496C005CE6032040E603204F490D0010B50446D9
:10497C0008462170FFF78EFC00236360204610BDB3
:10498C0010B504460068FFF791FD204610BD10B528
:10499C000446006808B1FFF789FD0023C4E9013320
:1049AC00236010BD38B504460D4600680131FFF791
:1049BC0085FD10B1C4E90005012038BD10B50368B0
:1049CC00044623B143688B4201D3012010BD20461D
:1049DC00FFF7E8FF0028F9D0A368002BF5D1226877
:1049EC001370F2E737B50D46114601920446FFF7F6
:1049FC00E5FF019A28B92046FFF7C9FF204603B00E
:104A0C0030BDA2602946206800F00EFB2268A36826
:104A1C000021D154F2E7002313B5C0E9003304465A
:104A2C008360037341B10846019100F041FB019989
:104A3C0002462046FFF7D6FF204602B010BD884242
:104A4C0010B5044605D00B682BB18A681946FFF7E0
:104A5C00C9FF204610BDFFF79AFFFAE710B50023F7
:104A6C000446C0E9003383600373FFF7E8FF204678
:104A7C0010BD08B582683AB921B10878B0FA80F057
:104A8C00400900E0012008BD006809B90078F5E78D
:104A9C0000F004FBF2E710B50446006818B1FFF70C
:104AAC0005FD0023236010BD10B50446FFF7F3FF8E
:104ABC00204610BD10B5094B094C022200201A608B
:104ACC00084B2060A080A071A360FFF763FC204618
:104ADC00054A0649BDE8104000F08EBA78E603207E
:104AEC006CE603200000FFFF40E60320B54A0D00F2
:104AFC00024B1A68024B1A60704700BFD8E50320BE
:104B0C007CE6032070474174704708B5007CFFF7C2
:104B1C0009FC20EAE07008BD08B5007CFFF7DAFB61
:104B2C0020EAE07008BD08B5007CFFF7E3FB40EA23
:104B3C00E07008BD08B5007CFFF7D4FB40EAE070DC
:104B4C0008BD007CFFF7DEBB37B5457C04462DB1B4
:104B5C00207C03B0BDE83040FFF7B4BB007C019172
:104B6C00FFF7E0FB00280199F2DC284603B030BDCA
:104B7C0010B51421044600F044FA204610BD000084
:104B8C0010B54FF0000C0446084611464FF47A72EB
:104B9C00C4E901C2044A22600122207462741A46DC
:104BAC00FFF788FB204610BDC4510D0013B50E4C09
:104BBC002178BFF35B8F11F0010112D120460191D6
:104BCC00FFF765FA019960B1084A094B0948FFF7EC
:104BDC00D7FF2046FFF760FA074A0849054800F05E
:104BEC000BFA044802B010BD80E6032084E60320D3
:104BFC0008E703208CE7032040E60320114B0D004F
:104C0C0041747047704708B50021007CFFF7AAFB80
:104C1C0040EAE07008BD08B50121007CFFF7A2FB5B
:104C2C0040EAE07008BD08B5007CFFF793FB20EA72
:104C3C00E07008BD08B5007CFFF784FB20EAE0704B
:104C4C0008BD13B50446007C0191FFF783FB0028D7
:104C5C00019901DC607C20B1207CFFF78BFB20EA02
:104C6C00E07002B010BD007CFFF78CBB10B51421B6
:104C7C00044600F0C6F9204610BD000010B54FF4F4
:104C8C007A73044608460021C4E90113044B2360DF
:104C9C000123207463741146FFF74CFB204610BDB2
:104CAC00F4510D0010B514220446002100F0CAF98D
:104CBC00204610BD10B5104C88B003A8FFF7F2FFCA
:104CCC002178BFF35B8F11F0010111D120460191C6
:104CDC00FFF7DDF9019958B103AA0848FFF7CEFF99
:104CEC002046FFF7D9F9064A0649044800F084F932
:104CFC00024808B010BD00BFA0E70320A4E70320C2
:104D0C0040E60320114C0D00002240681146FFF7CD
:104D1C008DBB002240681146FFF7A8BB00224068FB
:104D2C001146FFF7B3BB40680022FFF7A7BB4068F2
:104D3C00002281F00101FFF791BB002340681A4665
:104D4C001946FFF783BB002340681A461946FFF744
:104D5C0075BB002240681146FFF758BB4068002223
:104D6C000221FFF75BBB002340681A46FFF746BBE6
:104D7C00024B04225A60024A1A607047B8E70320BB
:104D8C0024520D00014B1860704700BFDCE5032076
:104D9C0008B50B4B43B1FFF78DFF03681B699847B0
:104DAC00002801DDAFF30080064B43B1FFF7FEFE98
:104DBC0003681B699847002801DDAFF3008008BD2C
:104DCC00000000000000000008B5FFF7E1FFFFF74E
:104DDC00F1F9014B186008BDD4E703200248034ADF
:104DEC000349121A00F020B900F4032004F4032044
:104DFC0080520D0007B5002300931A466FF077011F
:104E0C00FFF7E2FA03B05DF804FB000007B5438836
:104E1C000A2B08D0502B0BD1094B1B684BB103B09C
:104E2C005DF804EB1847FFF7E5FF03B05DF804FBF2
:104E3C00002300931A466FF07701FFF7C5FAF4E7E9
:104E4C00C4E7032038B5124C1248134D0021FFF76C
:104E5C003DFB2368AB42114B0CBF012200221A70A0
:104E6C0002D0FFF7BBFF2560FFF79CF9044600F06A
:104E7C00F1F80B4B13B12046AFF30080002108482A
:104E8C00FFF7B4FABDE8384006480021FFF792BAA4
:104E9C0000F40320914D0D001E1C279AC0E703203F
:104EAC0000000000194E0D00232813B502D9002074
:104EBC0002B010BDA0F10B03022B1AD8174C2178AD
:104ECC00BFF35B8F11F001010BD120460191FFF76D
:104EDC00DEF8019928B11248FFF748FD2046FFF78C
:104EEC00DBF80F4B1878FFF7DDF90028DFD1012034
:104EFC00DEE7012809D800F057F80021007CFFF705
:104F0C00A1F980F00100C0B2D2E709380128EED82F
:104F1C00FFF74CFE007CFFF7FDF9F2E7C8E7032032
:104F2C00CCE70320232838B504460D460AD8FF29C0
:104F3C0008D0FFF7B9FF28B129462046BDE8384014
:104F4C00FFF740B938BD38B504460D46FFF742F9B6
:104F5C00FF2810D0062804D84D2323FA00F0C307ED
:104F6C0009D42046FFF7A0FF28B129462046BDE80A
:104F7C003840FFF737B938BD38B5002320254380BA
:104F8C00142304460380856005610649284600F019
:104F9C003AF804496060284600F035F8E060204695
:104FAC0038BD00BF50520D0030B50F4D2978BFF3FE
:104FBC005B8F11F0010487B013D12846FFF767F817
:104FCC0078B101A8FFF7D8FF01AA21460748FFF7DF
:104FDC003BFB2846FFF760F8054A0649034800F0FA
:104FEC000BF8024807B030BDD8E70320DCE70320FC
:104FFC0040E60320FD450D000B460146184600F027
:10500C0005B8FFF742B8FFF73EB8000010B5054CE5
:10501C0013462CB10A4601460220AFF3008010BDA6
:10502C002046FCE7000000000A44914200F1FF33E7
:10503C0000D1704710B511F8014B03F8014F9142A4
:10504C00F9D110BD02440346934200D1704703F8D6
:10505C00011BF9E738B50D4B1D68AB6B04467BB9EA
:10506C001820FFF71BFA0A4A0A4BA863C0E9002371
:10507C00094B83600B23838101220023C0E90423A5
:10508C00AB6B00221C615A6138BD00BFDCE503200C
:10509C000E33CDAB34126DE6ECDE050010F8012BAF
:1050AC0011F8013B012A28BF9A42F7D0D01A704759
:1050BC00034613F8012B002AFBD1181A013870474C
:1050CC001D400D0059400D0081400D0085400D0024
:1050DC0000000000677265656E00626C7565007299
:1050EC006564006F6666006C65640000000000007B
:1050FC0000000000DF450D00D5450D00CB450D002F
:10510C00C1450D00B5450D00A9450D009D450D008F
:10511C0095450D008B450D0081450D00D5470D00C3
:10512C000000000000000000FD450D0047460D008A
:10513C001F460D00FF450D0027460D002F460D00A4
:10514C0037460D003F460D00000000000000000037
:10515C0089460D0079460D007B460D00617070008C
:10516C0000000000000000006D470D0077470D00A7
:10517C0081470D008B470D0095470D00A1470D0091
:10518C00AD470D00B9470D00C1470D00CB470D00D1
:10519C00D5470D0025592D256D2D25645425483AEC
:1051AC00254D3A2553257A0061736374696D65004A
:1051BC000000000000000000114B0D007D4B0D00A5
:1051CC00554B0D00BD480D00254B0D00414B0D00FE
:1051DC00334B0D004F4B0D00134B0D00174B0D00B7
:1051EC000000000000000000114C0D00794C0D0077
:1051FC004F4C0D00BD480D00414C0D00134C0D00E3
:10520C00234C0D00734C0D00334C0D000D4C0D0058
:10521C000000000000000000734D0D00694D0D00F2
:10522C005F4D0D00154D0D00534D0D00474D0D00FC
:10523C003B4D0D00334D0D00294D0D001F4D0D0044
:10524C00D5470D000000000087410D00F9440D000A
:10525C00E9450D005D470D00A9480D005D490D00A5
:10526C00C14A0D00FD4A0D007D4D0D0000000000EF
:04527C00000000002E
:04528000000000002A
:10528400B4510D00E0E50320000000000000000020
:10529400000000000000000000000000000000000A
:1052A40000000000000000000000000000000000FA
:1052B40000000000000000000000000000000000EA
:1052C40000000000000000000000000000000000DA
:1052D40000000000000000000000000000000000CA
:0852E4000000000000000000C2
:1052EC00FFFFFFFF00000102030405060708090A7F
:1052FC000B0C0D0E0F101112131415161718191A7A
:08530C001B1C1D1E1F202800C0
:045314007856341281
:04000003D000401CCD
:00000001FF
